{
  "_format": "hh-sol-artifact-1",
  "contractName": "dealerNFT",
  "sourceName": "contracts/DealerNFT.sol",
  "abi": [
    {
      "inputs": [],
      "stateMutability": "nonpayable",
      "type": "constructor"
    },
    {
      "anonymous": false,
      "inputs": [
        {
          "indexed": true,
          "internalType": "address",
          "name": "owner",
          "type": "address"
        },
        {
          "indexed": true,
          "internalType": "address",
          "name": "approved",
          "type": "address"
        },
        {
          "indexed": true,
          "internalType": "uint256",
          "name": "tokenId",
          "type": "uint256"
        }
      ],
      "name": "Approval",
      "type": "event"
    },
    {
      "anonymous": false,
      "inputs": [
        {
          "indexed": true,
          "internalType": "address",
          "name": "owner",
          "type": "address"
        },
        {
          "indexed": true,
          "internalType": "address",
          "name": "operator",
          "type": "address"
        },
        {
          "indexed": false,
          "internalType": "bool",
          "name": "approved",
          "type": "bool"
        }
      ],
      "name": "ApprovalForAll",
      "type": "event"
    },
    {
      "anonymous": false,
      "inputs": [
        {
          "indexed": true,
          "internalType": "uint256",
          "name": "tokenId",
          "type": "uint256"
        },
        {
          "indexed": false,
          "internalType": "string",
          "name": "tokenURI",
          "type": "string"
        }
      ],
      "name": "CreateddealerNFT",
      "type": "event"
    },
    {
      "anonymous": false,
      "inputs": [
        {
          "indexed": true,
          "internalType": "address",
          "name": "from",
          "type": "address"
        },
        {
          "indexed": true,
          "internalType": "address",
          "name": "to",
          "type": "address"
        },
        {
          "indexed": true,
          "internalType": "uint256",
          "name": "tokenId",
          "type": "uint256"
        }
      ],
      "name": "Transfer",
      "type": "event"
    },
    {
      "inputs": [
        {
          "internalType": "uint256",
          "name": "",
          "type": "uint256"
        }
      ],
      "name": "Dealers",
      "outputs": [
        {
          "internalType": "string",
          "name": "RegisteredName",
          "type": "string"
        },
        {
          "internalType": "string",
          "name": "Brand",
          "type": "string"
        },
        {
          "internalType": "string",
          "name": "regId",
          "type": "string"
        },
        {
          "internalType": "string",
          "name": "vehicleCat",
          "type": "string"
        },
        {
          "internalType": "string",
          "name": "addr",
          "type": "string"
        },
        {
          "internalType": "address",
          "name": "walletAddress",
          "type": "address"
        }
      ],
      "stateMutability": "view",
      "type": "function"
    },
    {
      "inputs": [
        {
          "internalType": "address",
          "name": "to",
          "type": "address"
        },
        {
          "internalType": "uint256",
          "name": "tokenId",
          "type": "uint256"
        }
      ],
      "name": "approve",
      "outputs": [],
      "stateMutability": "nonpayable",
      "type": "function"
    },
    {
      "inputs": [
        {
          "internalType": "address",
          "name": "owner",
          "type": "address"
        }
      ],
      "name": "balanceOf",
      "outputs": [
        {
          "internalType": "uint256",
          "name": "",
          "type": "uint256"
        }
      ],
      "stateMutability": "view",
      "type": "function"
    },
    {
      "inputs": [
        {
          "internalType": "string",
          "name": "_regId",
          "type": "string"
        }
      ],
      "name": "checkForDuplicate",
      "outputs": [
        {
          "internalType": "bool",
          "name": "",
          "type": "bool"
        }
      ],
      "stateMutability": "view",
      "type": "function"
    },
    {
      "inputs": [
        {
          "internalType": "string",
          "name": "_regName",
          "type": "string"
        },
        {
          "internalType": "string",
          "name": "_brand",
          "type": "string"
        },
        {
          "internalType": "string",
          "name": "_regId",
          "type": "string"
        },
        {
          "internalType": "string",
          "name": "_vehicleCat",
          "type": "string"
        },
        {
          "internalType": "string",
          "name": "_addr",
          "type": "string"
        }
      ],
      "name": "create",
      "outputs": [],
      "stateMutability": "payable",
      "type": "function"
    },
    {
      "inputs": [],
      "name": "dealer",
      "outputs": [
        {
          "internalType": "string",
          "name": "RegisteredName",
          "type": "string"
        },
        {
          "internalType": "string",
          "name": "Brand",
          "type": "string"
        },
        {
          "internalType": "string",
          "name": "regId",
          "type": "string"
        },
        {
          "internalType": "string",
          "name": "vehicleCat",
          "type": "string"
        },
        {
          "internalType": "string",
          "name": "addr",
          "type": "string"
        },
        {
          "internalType": "address",
          "name": "walletAddress",
          "type": "address"
        }
      ],
      "stateMutability": "view",
      "type": "function"
    },
    {
      "inputs": [
        {
          "internalType": "uint256",
          "name": "tokenId",
          "type": "uint256"
        }
      ],
      "name": "getApproved",
      "outputs": [
        {
          "internalType": "address",
          "name": "",
          "type": "address"
        }
      ],
      "stateMutability": "view",
      "type": "function"
    },
    {
      "inputs": [
        {
          "internalType": "address",
          "name": "owner",
          "type": "address"
        },
        {
          "internalType": "address",
          "name": "operator",
          "type": "address"
        }
      ],
      "name": "isApprovedForAll",
      "outputs": [
        {
          "internalType": "bool",
          "name": "",
          "type": "bool"
        }
      ],
      "stateMutability": "view",
      "type": "function"
    },
    {
      "inputs": [],
      "name": "name",
      "outputs": [
        {
          "internalType": "string",
          "name": "",
          "type": "string"
        }
      ],
      "stateMutability": "view",
      "type": "function"
    },
    {
      "inputs": [
        {
          "internalType": "uint256",
          "name": "tokenId",
          "type": "uint256"
        }
      ],
      "name": "ownerOf",
      "outputs": [
        {
          "internalType": "address",
          "name": "",
          "type": "address"
        }
      ],
      "stateMutability": "view",
      "type": "function"
    },
    {
      "inputs": [],
      "name": "price",
      "outputs": [
        {
          "internalType": "uint256",
          "name": "",
          "type": "uint256"
        }
      ],
      "stateMutability": "view",
      "type": "function"
    },
    {
      "inputs": [
        {
          "internalType": "address",
          "name": "from",
          "type": "address"
        },
        {
          "internalType": "address",
          "name": "to",
          "type": "address"
        },
        {
          "internalType": "uint256",
          "name": "tokenId",
          "type": "uint256"
        }
      ],
      "name": "safeTransferFrom",
      "outputs": [],
      "stateMutability": "nonpayable",
      "type": "function"
    },
    {
      "inputs": [
        {
          "internalType": "address",
          "name": "from",
          "type": "address"
        },
        {
          "internalType": "address",
          "name": "to",
          "type": "address"
        },
        {
          "internalType": "uint256",
          "name": "tokenId",
          "type": "uint256"
        },
        {
          "internalType": "bytes",
          "name": "_data",
          "type": "bytes"
        }
      ],
      "name": "safeTransferFrom",
      "outputs": [],
      "stateMutability": "nonpayable",
      "type": "function"
    },
    {
      "inputs": [
        {
          "internalType": "string",
          "name": "_regId",
          "type": "string"
        }
      ],
      "name": "searchByRegId",
      "outputs": [
        {
          "components": [
            {
              "internalType": "string",
              "name": "RegisteredName",
              "type": "string"
            },
            {
              "internalType": "string",
              "name": "Brand",
              "type": "string"
            },
            {
              "internalType": "string",
              "name": "regId",
              "type": "string"
            },
            {
              "internalType": "string",
              "name": "vehicleCat",
              "type": "string"
            },
            {
              "internalType": "string",
              "name": "addr",
              "type": "string"
            },
            {
              "internalType": "address",
              "name": "walletAddress",
              "type": "address"
            }
          ],
          "internalType": "struct dealerNFT.Dealer",
          "name": "_dealer",
          "type": "tuple"
        }
      ],
      "stateMutability": "view",
      "type": "function"
    },
    {
      "inputs": [
        {
          "internalType": "address",
          "name": "operator",
          "type": "address"
        },
        {
          "internalType": "bool",
          "name": "approved",
          "type": "bool"
        }
      ],
      "name": "setApprovalForAll",
      "outputs": [],
      "stateMutability": "nonpayable",
      "type": "function"
    },
    {
      "inputs": [
        {
          "internalType": "bytes4",
          "name": "interfaceId",
          "type": "bytes4"
        }
      ],
      "name": "supportsInterface",
      "outputs": [
        {
          "internalType": "bool",
          "name": "",
          "type": "bool"
        }
      ],
      "stateMutability": "view",
      "type": "function"
    },
    {
      "inputs": [
        {
          "internalType": "string",
          "name": "svg",
          "type": "string"
        }
      ],
      "name": "svgToImageURI",
      "outputs": [
        {
          "internalType": "string",
          "name": "",
          "type": "string"
        }
      ],
      "stateMutability": "pure",
      "type": "function"
    },
    {
      "inputs": [],
      "name": "symbol",
      "outputs": [
        {
          "internalType": "string",
          "name": "",
          "type": "string"
        }
      ],
      "stateMutability": "view",
      "type": "function"
    },
    {
      "inputs": [],
      "name": "tokenCounter",
      "outputs": [
        {
          "internalType": "uint256",
          "name": "",
          "type": "uint256"
        }
      ],
      "stateMutability": "view",
      "type": "function"
    },
    {
      "inputs": [
        {
          "internalType": "uint256",
          "name": "tokenId",
          "type": "uint256"
        }
      ],
      "name": "tokenURI",
      "outputs": [
        {
          "internalType": "string",
          "name": "",
          "type": "string"
        }
      ],
      "stateMutability": "view",
      "type": "function"
    },
    {
      "inputs": [
        {
          "internalType": "address",
          "name": "from",
          "type": "address"
        },
        {
          "internalType": "address",
          "name": "to",
          "type": "address"
        },
        {
          "internalType": "uint256",
          "name": "tokenId",
          "type": "uint256"
        }
      ],
      "name": "transferFrom",
      "outputs": [],
      "stateMutability": "nonpayable",
      "type": "function"
    },
    {
      "inputs": [],
      "name": "withdraw",
      "outputs": [],
      "stateMutability": "nonpayable",
      "type": "function"
    }
  ],
  "bytecode": "0x60806040523480156200001157600080fd5b506040518060400160405280600f81526020017f4445414c4552534849505f5245473700000000000000000000000000000000008152506040518060400160405280600481526020017f445223370000000000000000000000000000000000000000000000000000000081525081600090805190602001906200009692919062000110565b508060019080519060200190620000af92919062000110565b50505033600960006101000a81548173ffffffffffffffffffffffffffffffffffffffff021916908373ffffffffffffffffffffffffffffffffffffffff1602179055506000600781905550670de0b6b3a764000060088190555062000225565b8280546200011e90620001c0565b90600052602060002090601f0160209004810192826200014257600085556200018e565b82601f106200015d57805160ff19168380011785556200018e565b828001600101855582156200018e579182015b828111156200018d57825182559160200191906001019062000170565b5b5090506200019d9190620001a1565b5090565b5b80821115620001bc576000816000905550600101620001a2565b5090565b60006002820490506001821680620001d957607f821691505b60208210811415620001f057620001ef620001f6565b5b50919050565b7f4e487b7100000000000000000000000000000000000000000000000000000000600052602260045260246000fd5b61577680620002356000396000f3fe6080604052600436106101355760003560e01c80637b00f7ca116100ab578063a22cb4651161006f578063a22cb46514610444578063b88d4fde1461046d578063c87b56dd14610496578063cdffa366146104d3578063d082e38114610515578063e985e9c51461054057610135565b80637b00f7ca1461034457806395d89b41146103815780639de2ee21146103ac578063a0147ca5146103dc578063a035b1fe1461041957610135565b806323b872dd116100fd57806323b872dd1461022457806330d871c61461024d5780633ccfd60b1461028a57806342842e0e146102a15780636352211e146102ca57806370a082311461030757610135565b806301ffc9a71461013a57806306fdde0314610177578063081812fc146101a2578063095ea7b3146101df5780631953dc7314610208575b600080fd5b34801561014657600080fd5b50610161600480360381019061015c9190613897565b61057d565b60405161016e9190614398565b60405180910390f35b34801561018357600080fd5b5061018c61065f565b60405161019991906143b3565b60405180910390f35b3480156101ae57600080fd5b506101c960048036038101906101c49190613a41565b6106f1565b6040516101d69190614331565b60405180910390f35b3480156101eb57600080fd5b5061020660048036038101906102019190613857565b610776565b005b610222600480360381019061021d919061393a565b61088e565b005b34801561023057600080fd5b5061024b60048036038101906102469190613741565b610f81565b005b34801561025957600080fd5b50610274600480360381019061026f91906138f1565b610fe1565b60405161028191906143b3565b60405180910390f35b34801561029657600080fd5b5061029f61105b565b005b3480156102ad57600080fd5b506102c860048036038101906102c39190613741565b611156565b005b3480156102d657600080fd5b506102f160048036038101906102ec9190613a41565b611176565b6040516102fe9190614331565b60405180910390f35b34801561031357600080fd5b5061032e600480360381019061032991906136d4565b611228565b60405161033b91906146fb565b60405180910390f35b34801561035057600080fd5b5061036b600480360381019061036691906138f1565b6112e0565b6040516103789190614398565b60405180910390f35b34801561038d57600080fd5b506103966116d5565b6040516103a391906143b3565b60405180910390f35b3480156103b857600080fd5b506103c1611767565b6040516103d3969594939291906143d5565b60405180910390f35b3480156103e857600080fd5b5061040360048036038101906103fe91906138f1565b611a59565b60405161041091906146d9565b60405180910390f35b34801561042557600080fd5b5061042e611e45565b60405161043b91906146fb565b60405180910390f35b34801561045057600080fd5b5061046b60048036038101906104669190613817565b611e4b565b005b34801561047957600080fd5b50610494600480360381019061048f9190613794565b611e61565b005b3480156104a257600080fd5b506104bd60048036038101906104b89190613a41565b611ec3565b6040516104ca91906143b3565b60405180910390f35b3480156104df57600080fd5b506104fa60048036038101906104f59190613a41565b612015565b60405161050c969594939291906143d5565b60405180910390f35b34801561052157600080fd5b5061052a612329565b60405161053791906146fb565b60405180910390f35b34801561054c57600080fd5b5061056760048036038101906105629190613701565b61232f565b6040516105749190614398565b60405180910390f35b60007f80ac58cd000000000000000000000000000000000000000000000000000000007bffffffffffffffffffffffffffffffffffffffffffffffffffffffff1916827bffffffffffffffffffffffffffffffffffffffffffffffffffffffff1916148061064857507f5b5e139f000000000000000000000000000000000000000000000000000000007bffffffffffffffffffffffffffffffffffffffffffffffffffffffff1916827bffffffffffffffffffffffffffffffffffffffffffffffffffffffff1916145b806106585750610657826123c3565b5b9050919050565b60606000805461066e906149bc565b80601f016020809104026020016040519081016040528092919081815260200182805461069a906149bc565b80156106e75780601f106106bc576101008083540402835291602001916106e7565b820191906000526020600020905b8154815290600101906020018083116106ca57829003601f168201915b5050505050905090565b60006106fc8261242d565b61073b576040517f08c379a000000000000000000000000000000000000000000000000000000000815260040161073290614639565b60405180910390fd5b6004600083815260200190815260200160002060009054906101000a900473ffffffffffffffffffffffffffffffffffffffff169050919050565b600061078182611176565b90508073ffffffffffffffffffffffffffffffffffffffff168373ffffffffffffffffffffffffffffffffffffffff1614156107f2576040517f08c379a00000000000000000000000000000000000000000000000000000000081526004016107e990614679565b60405180910390fd5b8073ffffffffffffffffffffffffffffffffffffffff16610811612499565b73ffffffffffffffffffffffffffffffffffffffff161480610840575061083f8161083a612499565b61232f565b5b61087f576040517f08c379a000000000000000000000000000000000000000000000000000000000815260040161087690614579565b60405180910390fd5b61088983836124a1565b505050565b600061089933611228565b146108d9576040517f08c379a00000000000000000000000000000000000000000000000000000000081526004016108d0906146b9565b60405180910390fd5b60085434101561091e576040517f08c379a0000000000000000000000000000000000000000000000000000000008152600401610915906144f9565b60405180910390fd5b6000610929846112e0565b905060003390508115610971576040517f08c379a0000000000000000000000000000000000000000000000000000000008152600401610968906144d9565b60405180910390fd5b6040518060c001604052808881526020018781526020018681526020018581526020018481526020018273ffffffffffffffffffffffffffffffffffffffff16815250600b60008201518160000190805190602001906109d292919061340f565b5060208201518160010190805190602001906109ef92919061340f565b506040820151816002019080519060200190610a0c92919061340f565b506060820151816003019080519060200190610a2992919061340f565b506080820151816004019080519060200190610a4692919061340f565b5060a08201518160050160006101000a81548173ffffffffffffffffffffffffffffffffffffffff021916908373ffffffffffffffffffffffffffffffffffffffff160217905550905050600a600b90806001815401808255809150506001900390600052602060002090600602016000909190919091506000820181600001908054610ad2906149bc565b610add929190613495565b506001820181600101908054610af2906149bc565b610afd929190613495565b506002820181600201908054610b12906149bc565b610b1d929190613495565b506003820181600301908054610b32906149bc565b610b3d929190613495565b506004820181600401908054610b52906149bc565b610b5d929190613495565b506005820160009054906101000a900473ffffffffffffffffffffffffffffffffffffffff168160050160006101000a81548173ffffffffffffffffffffffffffffffffffffffff021916908373ffffffffffffffffffffffffffffffffffffffff1602179055505050610bd33360075461255a565b6000610f1a600b6040518060c0016040529081600082018054610bf5906149bc565b80601f0160208091040260200160405190810160405280929190818152602001828054610c21906149bc565b8015610c6e5780601f10610c4357610100808354040283529160200191610c6e565b820191906000526020600020905b815481529060010190602001808311610c5157829003601f168201915b50505050508152602001600182018054610c87906149bc565b80601f0160208091040260200160405190810160405280929190818152602001828054610cb3906149bc565b8015610d005780601f10610cd557610100808354040283529160200191610d00565b820191906000526020600020905b815481529060010190602001808311610ce357829003601f168201915b50505050508152602001600282018054610d19906149bc565b80601f0160208091040260200160405190810160405280929190818152602001828054610d45906149bc565b8015610d925780601f10610d6757610100808354040283529160200191610d92565b820191906000526020600020905b815481529060010190602001808311610d7557829003601f168201915b50505050508152602001600382018054610dab906149bc565b80601f0160208091040260200160405190810160405280929190818152602001828054610dd7906149bc565b8015610e245780601f10610df957610100808354040283529160200191610e24565b820191906000526020600020905b815481529060010190602001808311610e0757829003601f168201915b50505050508152602001600482018054610e3d906149bc565b80601f0160208091040260200160405190810160405280929190818152602001828054610e69906149bc565b8015610eb65780601f10610e8b57610100808354040283529160200191610eb6565b820191906000526020600020905b815481529060010190602001808311610e9957829003601f168201915b505050505081526020016005820160009054906101000a900473ffffffffffffffffffffffffffffffffffffffff1673ffffffffffffffffffffffffffffffffffffffff1673ffffffffffffffffffffffffffffffffffffffff1681525050612578565b9050610f28600754826125d4565b6007547f478e3bc534481f12fdba9dd899d1758be114a4757e169832e41bf3e7040798fd82604051610f5a91906143b3565b60405180910390a26001600754610f7191906147f1565b6007819055505050505050505050565b610f92610f8c612499565b82612648565b610fd1576040517f08c379a0000000000000000000000000000000000000000000000000000000008152600401610fc890614699565b60405180910390fd5b610fdc838383612726565b505050565b606060006040518060400160405280601a81526020017f646174613a696d6167652f7376672b786d6c3b6261736536342c000000000000815250905060006110288461298d565b90506000828260405160200161103f929190614153565b6040516020818303038152906040529050809350505050919050565b600960009054906101000a900473ffffffffffffffffffffffffffffffffffffffff1673ffffffffffffffffffffffffffffffffffffffff163373ffffffffffffffffffffffffffffffffffffffff16146110eb576040517f08c379a00000000000000000000000000000000000000000000000000000000081526004016110e290614459565b60405180910390fd5b600960009054906101000a900473ffffffffffffffffffffffffffffffffffffffff1673ffffffffffffffffffffffffffffffffffffffff166108fc479081150290604051600060405180830381858888f19350505050158015611153573d6000803e3d6000fd5b50565b61117183838360405180602001604052806000815250611e61565b505050565b6000806002600084815260200190815260200160002060009054906101000a900473ffffffffffffffffffffffffffffffffffffffff169050600073ffffffffffffffffffffffffffffffffffffffff168173ffffffffffffffffffffffffffffffffffffffff16141561121f576040517f08c379a0000000000000000000000000000000000000000000000000000000008152600401611216906145b9565b60405180910390fd5b80915050919050565b60008073ffffffffffffffffffffffffffffffffffffffff168273ffffffffffffffffffffffffffffffffffffffff161415611299576040517f08c379a000000000000000000000000000000000000000000000000000000000815260040161129090614599565b60405180910390fd5b600360008373ffffffffffffffffffffffffffffffffffffffff1673ffffffffffffffffffffffffffffffffffffffff168152602001908152602001600020549050919050565b600080600090505b6007548110156116ca576000600a828154811061130857611307614b26565b5b90600052602060002090600602016040518060c0016040529081600082018054611331906149bc565b80601f016020809104026020016040519081016040528092919081815260200182805461135d906149bc565b80156113aa5780601f1061137f576101008083540402835291602001916113aa565b820191906000526020600020905b81548152906001019060200180831161138d57829003601f168201915b505050505081526020016001820180546113c3906149bc565b80601f01602080910402602001604051908101604052809291908181526020018280546113ef906149bc565b801561143c5780601f106114115761010080835404028352916020019161143c565b820191906000526020600020905b81548152906001019060200180831161141f57829003601f168201915b50505050508152602001600282018054611455906149bc565b80601f0160208091040260200160405190810160405280929190818152602001828054611481906149bc565b80156114ce5780601f106114a3576101008083540402835291602001916114ce565b820191906000526020600020905b8154815290600101906020018083116114b157829003601f168201915b505050505081526020016003820180546114e7906149bc565b80601f0160208091040260200160405190810160405280929190818152602001828054611513906149bc565b80156115605780601f1061153557610100808354040283529160200191611560565b820191906000526020600020905b81548152906001019060200180831161154357829003601f168201915b50505050508152602001600482018054611579906149bc565b80601f01602080910402602001604051908101604052809291908181526020018280546115a5906149bc565b80156115f25780601f106115c7576101008083540402835291602001916115f2565b820191906000526020600020905b8154815290600101906020018083116115d557829003601f168201915b505050505081526020016005820160009054906101000a900473ffffffffffffffffffffffffffffffffffffffff1673ffffffffffffffffffffffffffffffffffffffff1673ffffffffffffffffffffffffffffffffffffffff1681525050905083604051602001611664919061413c565b60405160208183030381529060405280519060200120816040015160405160200161168f919061413c565b6040516020818303038152906040528051906020012014156116b6576001925050506116d0565b5080806116c290614a1f565b9150506112e8565b60009150505b919050565b6060600180546116e4906149bc565b80601f0160208091040260200160405190810160405280929190818152602001828054611710906149bc565b801561175d5780601f106117325761010080835404028352916020019161175d565b820191906000526020600020905b81548152906001019060200180831161174057829003601f168201915b5050505050905090565b600b806000018054611778906149bc565b80601f01602080910402602001604051908101604052809291908181526020018280546117a4906149bc565b80156117f15780601f106117c6576101008083540402835291602001916117f1565b820191906000526020600020905b8154815290600101906020018083116117d457829003601f168201915b505050505090806001018054611806906149bc565b80601f0160208091040260200160405190810160405280929190818152602001828054611832906149bc565b801561187f5780601f106118545761010080835404028352916020019161187f565b820191906000526020600020905b81548152906001019060200180831161186257829003601f168201915b505050505090806002018054611894906149bc565b80601f01602080910402602001604051908101604052809291908181526020018280546118c0906149bc565b801561190d5780601f106118e25761010080835404028352916020019161190d565b820191906000526020600020905b8154815290600101906020018083116118f057829003601f168201915b505050505090806003018054611922906149bc565b80601f016020809104026020016040519081016040528092919081815260200182805461194e906149bc565b801561199b5780601f106119705761010080835404028352916020019161199b565b820191906000526020600020905b81548152906001019060200180831161197e57829003601f168201915b5050505050908060040180546119b0906149bc565b80601f01602080910402602001604051908101604052809291908181526020018280546119dc906149bc565b8015611a295780601f106119fe57610100808354040283529160200191611a29565b820191906000526020600020905b815481529060010190602001808311611a0c57829003601f168201915b5050505050908060050160009054906101000a900473ffffffffffffffffffffffffffffffffffffffff16905086565b611a61613522565b60005b600754811015611e3e57600a8181548110611a8257611a81614b26565b5b90600052602060002090600602016040518060c0016040529081600082018054611aab906149bc565b80601f0160208091040260200160405190810160405280929190818152602001828054611ad7906149bc565b8015611b245780601f10611af957610100808354040283529160200191611b24565b820191906000526020600020905b815481529060010190602001808311611b0757829003601f168201915b50505050508152602001600182018054611b3d906149bc565b80601f0160208091040260200160405190810160405280929190818152602001828054611b69906149bc565b8015611bb65780601f10611b8b57610100808354040283529160200191611bb6565b820191906000526020600020905b815481529060010190602001808311611b9957829003601f168201915b50505050508152602001600282018054611bcf906149bc565b80601f0160208091040260200160405190810160405280929190818152602001828054611bfb906149bc565b8015611c485780601f10611c1d57610100808354040283529160200191611c48565b820191906000526020600020905b815481529060010190602001808311611c2b57829003601f168201915b50505050508152602001600382018054611c61906149bc565b80601f0160208091040260200160405190810160405280929190818152602001828054611c8d906149bc565b8015611cda5780601f10611caf57610100808354040283529160200191611cda565b820191906000526020600020905b815481529060010190602001808311611cbd57829003601f168201915b50505050508152602001600482018054611cf3906149bc565b80601f0160208091040260200160405190810160405280929190818152602001828054611d1f906149bc565b8015611d6c5780601f10611d4157610100808354040283529160200191611d6c565b820191906000526020600020905b815481529060010190602001808311611d4f57829003601f168201915b505050505081526020016005820160009054906101000a900473ffffffffffffffffffffffffffffffffffffffff1673ffffffffffffffffffffffffffffffffffffffff1673ffffffffffffffffffffffffffffffffffffffff1681525050915082604051602001611dde919061413c565b604051602081830303815290604052805190602001208260400151604051602001611e09919061413c565b604051602081830303815290604052805190602001201415611e2b5750611e40565b8080611e3690614a1f565b915050611a64565b505b919050565b60085481565b611e5d611e56612499565b8383612b06565b5050565b611e72611e6c612499565b83612648565b611eb1576040517f08c379a0000000000000000000000000000000000000000000000000000000008152600401611ea890614699565b60405180910390fd5b611ebd84848484612c73565b50505050565b6060611ece8261242d565b611f0d576040517f08c379a0000000000000000000000000000000000000000000000000000000008152600401611f0490614619565b60405180910390fd5b6000600660008481526020019081526020016000208054611f2d906149bc565b80601f0160208091040260200160405190810160405280929190818152602001828054611f59906149bc565b8015611fa65780601f10611f7b57610100808354040283529160200191611fa6565b820191906000526020600020905b815481529060010190602001808311611f8957829003601f168201915b505050505090506000611fb7612ccf565b9050600081511415611fcd578192505050612010565b600082511115612002578082604051602001611fea929190614153565b60405160208183030381529060405292505050612010565b61200b84612ce6565b925050505b919050565b600a818154811061202557600080fd5b9060005260206000209060060201600091509050806000018054612048906149bc565b80601f0160208091040260200160405190810160405280929190818152602001828054612074906149bc565b80156120c15780601f10612096576101008083540402835291602001916120c1565b820191906000526020600020905b8154815290600101906020018083116120a457829003601f168201915b5050505050908060010180546120d6906149bc565b80601f0160208091040260200160405190810160405280929190818152602001828054612102906149bc565b801561214f5780601f106121245761010080835404028352916020019161214f565b820191906000526020600020905b81548152906001019060200180831161213257829003601f168201915b505050505090806002018054612164906149bc565b80601f0160208091040260200160405190810160405280929190818152602001828054612190906149bc565b80156121dd5780601f106121b2576101008083540402835291602001916121dd565b820191906000526020600020905b8154815290600101906020018083116121c057829003601f168201915b5050505050908060030180546121f2906149bc565b80601f016020809104026020016040519081016040528092919081815260200182805461221e906149bc565b801561226b5780601f106122405761010080835404028352916020019161226b565b820191906000526020600020905b81548152906001019060200180831161224e57829003601f168201915b505050505090806004018054612280906149bc565b80601f01602080910402602001604051908101604052809291908181526020018280546122ac906149bc565b80156122f95780601f106122ce576101008083540402835291602001916122f9565b820191906000526020600020905b8154815290600101906020018083116122dc57829003601f168201915b5050505050908060050160009054906101000a900473ffffffffffffffffffffffffffffffffffffffff16905086565b60075481565b6000600560008473ffffffffffffffffffffffffffffffffffffffff1673ffffffffffffffffffffffffffffffffffffffff16815260200190815260200160002060008373ffffffffffffffffffffffffffffffffffffffff1673ffffffffffffffffffffffffffffffffffffffff16815260200190815260200160002060009054906101000a900460ff16905092915050565b60007f01ffc9a7000000000000000000000000000000000000000000000000000000007bffffffffffffffffffffffffffffffffffffffffffffffffffffffff1916827bffffffffffffffffffffffffffffffffffffffffffffffffffffffff1916149050919050565b60008073ffffffffffffffffffffffffffffffffffffffff166002600084815260200190815260200160002060009054906101000a900473ffffffffffffffffffffffffffffffffffffffff1673ffffffffffffffffffffffffffffffffffffffff1614159050919050565b600033905090565b816004600083815260200190815260200160002060006101000a81548173ffffffffffffffffffffffffffffffffffffffff021916908373ffffffffffffffffffffffffffffffffffffffff160217905550808273ffffffffffffffffffffffffffffffffffffffff1661251483611176565b73ffffffffffffffffffffffffffffffffffffffff167f8c5be1e5ebec7d5bd14f71427d1e84f3dd0314c0f7b2291e5b200ac8c7c3b92560405160405180910390a45050565b612574828260405180602001604052806000815250612d8d565b5050565b6060600082600001518360200151846040015160405160200161259d939291906142d4565b604051602081830303815290604052905060006125b982610fe1565b905060006125c78583612de8565b9050809350505050919050565b6125dd8261242d565b61261c576040517f08c379a0000000000000000000000000000000000000000000000000000000008152600401612613906145d9565b60405180910390fd5b8060066000848152602001908152602001600020908051906020019061264392919061340f565b505050565b60006126538261242d565b612692576040517f08c379a000000000000000000000000000000000000000000000000000000000815260040161268990614559565b60405180910390fd5b600061269d83611176565b90508073ffffffffffffffffffffffffffffffffffffffff168473ffffffffffffffffffffffffffffffffffffffff1614806126df57506126de818561232f565b5b8061271d57508373ffffffffffffffffffffffffffffffffffffffff16612705846106f1565b73ffffffffffffffffffffffffffffffffffffffff16145b91505092915050565b8273ffffffffffffffffffffffffffffffffffffffff1661274682611176565b73ffffffffffffffffffffffffffffffffffffffff161461279c576040517f08c379a000000000000000000000000000000000000000000000000000000000815260040161279390614499565b60405180910390fd5b600073ffffffffffffffffffffffffffffffffffffffff168273ffffffffffffffffffffffffffffffffffffffff16141561280c576040517f08c379a000000000000000000000000000000000000000000000000000000000815260040161280390614519565b60405180910390fd5b612817838383612e7c565b6128226000826124a1565b6001600360008573ffffffffffffffffffffffffffffffffffffffff1673ffffffffffffffffffffffffffffffffffffffff168152602001908152602001600020600082825461287291906148d2565b925050819055506001600360008473ffffffffffffffffffffffffffffffffffffffff1673ffffffffffffffffffffffffffffffffffffffff16815260200190815260200160002060008282546128c991906147f1565b92505081905550816002600083815260200190815260200160002060006101000a81548173ffffffffffffffffffffffffffffffffffffffff021916908373ffffffffffffffffffffffffffffffffffffffff160217905550808273ffffffffffffffffffffffffffffffffffffffff168473ffffffffffffffffffffffffffffffffffffffff167fddf252ad1be2c89b69c2b068fc378daa952ba7f163c4a11628f55a4df523b3ef60405160405180910390a4612988838383612e81565b505050565b60606000825114156129b057604051806020016040528060008152509050612b01565b600060405180606001604052806040815260200161570160409139905060006003600285516129df91906147f1565b6129e99190614847565b60046129f59190614878565b90506000602082612a0691906147f1565b67ffffffffffffffff811115612a1f57612a1e614b55565b5b6040519080825280601f01601f191660200182016040528015612a515781602001600182028036833780820191505090505b509050818152600183018586518101602084015b81831015612ac0576003830192508251603f8160121c168501518253600182019150603f81600c1c168501518253600182019150603f8160061c168501518253600182019150603f8116850151825360018201915050612a65565b600389510660018114612ada5760028114612aea57612af5565b613d3d60f01b6002830352612af5565b603d60f81b60018303525b50505050508093505050505b919050565b8173ffffffffffffffffffffffffffffffffffffffff168373ffffffffffffffffffffffffffffffffffffffff161415612b75576040517f08c379a0000000000000000000000000000000000000000000000000000000008152600401612b6c90614539565b60405180910390fd5b80600560008573ffffffffffffffffffffffffffffffffffffffff1673ffffffffffffffffffffffffffffffffffffffff16815260200190815260200160002060008473ffffffffffffffffffffffffffffffffffffffff1673ffffffffffffffffffffffffffffffffffffffff16815260200190815260200160002060006101000a81548160ff0219169083151502179055508173ffffffffffffffffffffffffffffffffffffffff168373ffffffffffffffffffffffffffffffffffffffff167f17307eab39ab6107e8899845ad3d59bd9653f200f220920489ca2b5937696c3183604051612c669190614398565b60405180910390a3505050565b612c7e848484612726565b612c8a84848484612e86565b612cc9576040517f08c379a0000000000000000000000000000000000000000000000000000000008152600401612cc090614479565b60405180910390fd5b50505050565b606060405180602001604052806000815250905090565b6060612cf18261242d565b612d30576040517f08c379a0000000000000000000000000000000000000000000000000000000008152600401612d2790614659565b60405180910390fd5b6000612d3a612ccf565b90506000815111612d5a5760405180602001604052806000815250612d85565b80612d648461301d565b604051602001612d75929190614153565b6040516020818303038152906040525b915050919050565b612d97838361317e565b612da46000848484612e86565b612de3576040517f08c379a0000000000000000000000000000000000000000000000000000000008152600401612dda90614479565b60405180910390fd5b505050565b60606000612df98460000151613358565b90506000612e0f85602001518660600151613381565b90506000612e1c866133ad565b90506000612e4e84848489604051602001612e3a9493929190614177565b60405160208183030381529060405261298d565b905080604051602001612e61919061426d565b60405160208183030381529060405294505050505092915050565b505050565b505050565b6000612ea78473ffffffffffffffffffffffffffffffffffffffff166133ec565b15613010578373ffffffffffffffffffffffffffffffffffffffff1663150b7a02612ed0612499565b8786866040518563ffffffff1660e01b8152600401612ef2949392919061434c565b602060405180830381600087803b158015612f0c57600080fd5b505af1925050508015612f3d57506040513d601f19601f82011682018060405250810190612f3a91906138c4565b60015b612fc0573d8060008114612f6d576040519150601f19603f3d011682016040523d82523d6000602084013e612f72565b606091505b50600081511415612fb8576040517f08c379a0000000000000000000000000000000000000000000000000000000008152600401612faf90614479565b60405180910390fd5b805181602001fd5b63150b7a0260e01b7bffffffffffffffffffffffffffffffffffffffffffffffffffffffff1916817bffffffffffffffffffffffffffffffffffffffffffffffffffffffff191614915050613015565b600190505b949350505050565b60606000821415613065576040518060400160405280600181526020017f30000000000000000000000000000000000000000000000000000000000000008152509050613179565b600082905060005b6000821461309757808061308090614a1f565b915050600a826130909190614847565b915061306d565b60008167ffffffffffffffff8111156130b3576130b2614b55565b5b6040519080825280601f01601f1916602001820160405280156130e55781602001600182028036833780820191505090505b5090505b60008514613172576001826130fe91906148d2565b9150600a8561310d9190614a68565b603061311991906147f1565b60f81b81838151811061312f5761312e614b26565b5b60200101907effffffffffffffffffffffffffffffffffffffffffffffffffffffffffffff1916908160001a905350600a8561316b9190614847565b94506130e9565b8093505050505b919050565b600073ffffffffffffffffffffffffffffffffffffffff168273ffffffffffffffffffffffffffffffffffffffff1614156131ee576040517f08c379a00000000000000000000000000000000000000000000000000000000081526004016131e5906145f9565b60405180910390fd5b6131f78161242d565b15613237576040517f08c379a000000000000000000000000000000000000000000000000000000000815260040161322e906144b9565b60405180910390fd5b61324360008383612e7c565b6001600360008473ffffffffffffffffffffffffffffffffffffffff1673ffffffffffffffffffffffffffffffffffffffff168152602001908152602001600020600082825461329391906147f1565b92505081905550816002600083815260200190815260200160002060006101000a81548173ffffffffffffffffffffffffffffffffffffffff021916908373ffffffffffffffffffffffffffffffffffffffff160217905550808273ffffffffffffffffffffffffffffffffffffffff16600073ffffffffffffffffffffffffffffffffffffffff167fddf252ad1be2c89b69c2b068fc378daa952ba7f163c4a11628f55a4df523b3ef60405160405180910390a461335460008383612e81565b5050565b60608160405160200161336b9190614240565b6040516020818303038152906040529050919050565b6060828260405160200161339692919061428f565b604051602081830303815290604052905092915050565b606081602001518260600151836040015184608001516040516020016133d694939291906141cb565b6040516020818303038152906040529050919050565b6000808273ffffffffffffffffffffffffffffffffffffffff163b119050919050565b82805461341b906149bc565b90600052602060002090601f01602090048101928261343d5760008555613484565b82601f1061345657805160ff1916838001178555613484565b82800160010185558215613484579182015b82811115613483578251825591602001919060010190613468565b5b509050613491919061356e565b5090565b8280546134a1906149bc565b90600052602060002090601f0160209004810192826134c35760008555613511565b82601f106134d45780548555613511565b8280016001018555821561351157600052602060002091601f016020900482015b828111156135105782548255916001019190600101906134f5565b5b50905061351e919061356e565b5090565b6040518060c001604052806060815260200160608152602001606081526020016060815260200160608152602001600073ffffffffffffffffffffffffffffffffffffffff1681525090565b5b8082111561358757600081600090555060010161356f565b5090565b600061359e6135998461473b565b614716565b9050828152602081018484840111156135ba576135b9614b89565b5b6135c584828561497a565b509392505050565b60006135e06135db8461476c565b614716565b9050828152602081018484840111156135fc576135fb614b89565b5b61360784828561497a565b509392505050565b60008135905061361e816156a4565b92915050565b600081359050613633816156bb565b92915050565b600081359050613648816156d2565b92915050565b60008151905061365d816156d2565b92915050565b600082601f83011261367857613677614b84565b5b813561368884826020860161358b565b91505092915050565b600082601f8301126136a6576136a5614b84565b5b81356136b68482602086016135cd565b91505092915050565b6000813590506136ce816156e9565b92915050565b6000602082840312156136ea576136e9614b93565b5b60006136f88482850161360f565b91505092915050565b6000806040838503121561371857613717614b93565b5b60006137268582860161360f565b92505060206137378582860161360f565b9150509250929050565b60008060006060848603121561375a57613759614b93565b5b60006137688682870161360f565b93505060206137798682870161360f565b925050604061378a868287016136bf565b9150509250925092565b600080600080608085870312156137ae576137ad614b93565b5b60006137bc8782880161360f565b94505060206137cd8782880161360f565b93505060406137de878288016136bf565b925050606085013567ffffffffffffffff8111156137ff576137fe614b8e565b5b61380b87828801613663565b91505092959194509250565b6000806040838503121561382e5761382d614b93565b5b600061383c8582860161360f565b925050602061384d85828601613624565b9150509250929050565b6000806040838503121561386e5761386d614b93565b5b600061387c8582860161360f565b925050602061388d858286016136bf565b9150509250929050565b6000602082840312156138ad576138ac614b93565b5b60006138bb84828501613639565b91505092915050565b6000602082840312156138da576138d9614b93565b5b60006138e88482850161364e565b91505092915050565b60006020828403121561390757613906614b93565b5b600082013567ffffffffffffffff81111561392557613924614b8e565b5b61393184828501613691565b91505092915050565b600080600080600060a0868803121561395657613955614b93565b5b600086013567ffffffffffffffff81111561397457613973614b8e565b5b61398088828901613691565b955050602086013567ffffffffffffffff8111156139a1576139a0614b8e565b5b6139ad88828901613691565b945050604086013567ffffffffffffffff8111156139ce576139cd614b8e565b5b6139da88828901613691565b935050606086013567ffffffffffffffff8111156139fb576139fa614b8e565b5b613a0788828901613691565b925050608086013567ffffffffffffffff811115613a2857613a27614b8e565b5b613a3488828901613691565b9150509295509295909350565b600060208284031215613a5757613a56614b93565b5b6000613a65848285016136bf565b91505092915050565b613a7781614906565b82525050565b613a8681614906565b82525050565b613a9581614918565b82525050565b6000613aa68261479d565b613ab081856147b3565b9350613ac0818560208601614989565b613ac981614b98565b840191505092915050565b6000613adf826147a8565b613ae981856147c4565b9350613af9818560208601614989565b613b0281614b98565b840191505092915050565b6000613b18826147a8565b613b2281856147d5565b9350613b32818560208601614989565b613b3b81614b98565b840191505092915050565b6000613b51826147a8565b613b5b81856147e6565b9350613b6b818560208601614989565b80840191505092915050565b6000613b84600a836147d5565b9150613b8f82614ba9565b602082019050919050565b6000613ba76032836147d5565b9150613bb282614bd2565b604082019050919050565b6000613bca6031836147e6565b9150613bd582614c21565b603182019050919050565b6000613bed6002836147e6565b9150613bf882614c70565b600282019050919050565b6000613c106025836147d5565b9150613c1b82614c99565b604082019050919050565b6000613c33601c836147d5565b9150613c3e82614ce8565b602082019050919050565b6000613c56600e836147d5565b9150613c6182614d11565b602082019050919050565b6000613c796012836147d5565b9150613c8482614d3a565b602082019050919050565b6000613c9c6081836147e6565b9150613ca782614d63565b608182019050919050565b6000613cbf6024836147d5565b9150613cca82614e24565b604082019050919050565b6000613ce26019836147d5565b9150613ced82614e73565b602082019050919050565b6000613d05602c836147d5565b9150613d1082614e9c565b604082019050919050565b6000613d28600d836147e6565b9150613d3382614eeb565b600d82019050919050565b6000613d4b6038836147d5565b9150613d5682614f14565b604082019050919050565b6000613d6e602a836147d5565b9150613d7982614f63565b604082019050919050565b6000613d916029836147d5565b9150613d9c82614fb2565b604082019050919050565b6000613db4602e836147d5565b9150613dbf82615001565b604082019050919050565b6000613dd76004836147e6565b9150613de282615050565b600482019050919050565b6000613dfa6009836147e6565b9150613e0582615079565b600982019050919050565b6000613e1d6002836147e6565b9150613e28826150a2565b600282019050919050565b6000613e406020836147d5565b9150613e4b826150cb565b602082019050919050565b6000613e636031836147d5565b9150613e6e826150f4565b604082019050919050565b6000613e86602c836147d5565b9150613e9182615143565b604082019050919050565b6000613ea9602f836147d5565b9150613eb482615192565b604082019050919050565b6000613ecc600a836147e6565b9150613ed7826151e1565b600a82019050919050565b6000613eef6014836147e6565b9150613efa8261520a565b601482019050919050565b6000613f126021836147d5565b9150613f1d82615233565b604082019050919050565b6000613f356003836147e6565b9150613f4082615282565b600382019050919050565b6000613f58601d836147e6565b9150613f63826152ab565b601d82019050919050565b6000613f7b6031836147d5565b9150613f86826152d4565b604082019050919050565b6000613f9e6014836147d5565b9150613fa982615323565b602082019050919050565b6000613fc1603b836147e6565b9150613fcc8261534c565b603b82019050919050565b6000613fe5610121836147e6565b9150613ff08261539b565b61012182019050919050565b60006140096031836147e6565b91506140148261551c565b603182019050919050565b600061402c607b836147e6565b91506140378261556b565b607b82019050919050565b600061404f6028836147e6565b915061405a82615606565b602882019050919050565b60006140726029836147e6565b915061407d82615655565b602982019050919050565b600060c08301600083015184820360008601526140a58282613ad4565b915050602083015184820360208601526140bf8282613ad4565b915050604083015184820360408601526140d98282613ad4565b915050606083015184820360608601526140f38282613ad4565b9150506080830151848203608086015261410d8282613ad4565b91505060a083015161412260a0860182613a6e565b508091505092915050565b61413681614970565b82525050565b60006141488284613b46565b915081905092915050565b600061415f8285613b46565b915061416b8284613b46565b91508190509392505050565b60006141838287613b46565b915061418f8286613b46565b915061419b8285613b46565b91506141a682613ded565b91506141b28284613b46565b91506141bd82613e10565b915081905095945050505050565b60006141d682613bbd565b91506141e28287613b46565b91506141ed82613ffc565b91506141f98286613b46565b915061420482614065565b91506142108285613b46565b915061421b82614042565b91506142278284613b46565b915061423282613dca565b915081905095945050505050565b600061424b82613ebf565b91506142578284613b46565b915061426282613be0565b915081905092915050565b600061427882613f4b565b91506142848284613b46565b915081905092915050565b600061429a82613fb4565b91506142a68285613b46565b91506142b182613ee2565b91506142bd8284613b46565b91506142c882613f28565b91508190509392505050565b60006142df82613fd7565b91506142eb8286613b46565b91506142f682613c8f565b91506143028285613b46565b915061430d8261401f565b91506143198284613b46565b915061432482613d1b565b9150819050949350505050565b60006020820190506143466000830184613a7d565b92915050565b60006080820190506143616000830187613a7d565b61436e6020830186613a7d565b61437b604083018561412d565b818103606083015261438d8184613a9b565b905095945050505050565b60006020820190506143ad6000830184613a8c565b92915050565b600060208201905081810360008301526143cd8184613b0d565b905092915050565b600060c08201905081810360008301526143ef8189613b0d565b905081810360208301526144038188613b0d565b905081810360408301526144178187613b0d565b9050818103606083015261442b8186613b0d565b9050818103608083015261443f8185613b0d565b905061444e60a0830184613a7d565b979650505050505050565b6000602082019050818103600083015261447281613b77565b9050919050565b6000602082019050818103600083015261449281613b9a565b9050919050565b600060208201905081810360008301526144b281613c03565b9050919050565b600060208201905081810360008301526144d281613c26565b9050919050565b600060208201905081810360008301526144f281613c49565b9050919050565b6000602082019050818103600083015261451281613c6c565b9050919050565b6000602082019050818103600083015261453281613cb2565b9050919050565b6000602082019050818103600083015261455281613cd5565b9050919050565b6000602082019050818103600083015261457281613cf8565b9050919050565b6000602082019050818103600083015261459281613d3e565b9050919050565b600060208201905081810360008301526145b281613d61565b9050919050565b600060208201905081810360008301526145d281613d84565b9050919050565b600060208201905081810360008301526145f281613da7565b9050919050565b6000602082019050818103600083015261461281613e33565b9050919050565b6000602082019050818103600083015261463281613e56565b9050919050565b6000602082019050818103600083015261465281613e79565b9050919050565b6000602082019050818103600083015261467281613e9c565b9050919050565b6000602082019050818103600083015261469281613f05565b9050919050565b600060208201905081810360008301526146b281613f6e565b9050919050565b600060208201905081810360008301526146d281613f91565b9050919050565b600060208201905081810360008301526146f38184614088565b905092915050565b6000602082019050614710600083018461412d565b92915050565b6000614720614731565b905061472c82826149ee565b919050565b6000604051905090565b600067ffffffffffffffff82111561475657614755614b55565b5b61475f82614b98565b9050602081019050919050565b600067ffffffffffffffff82111561478757614786614b55565b5b61479082614b98565b9050602081019050919050565b600081519050919050565b600081519050919050565b600082825260208201905092915050565b600082825260208201905092915050565b600082825260208201905092915050565b600081905092915050565b60006147fc82614970565b915061480783614970565b9250827fffffffffffffffffffffffffffffffffffffffffffffffffffffffffffffffff0382111561483c5761483b614a99565b5b828201905092915050565b600061485282614970565b915061485d83614970565b92508261486d5761486c614ac8565b5b828204905092915050565b600061488382614970565b915061488e83614970565b9250817fffffffffffffffffffffffffffffffffffffffffffffffffffffffffffffffff04831182151516156148c7576148c6614a99565b5b828202905092915050565b60006148dd82614970565b91506148e883614970565b9250828210156148fb576148fa614a99565b5b828203905092915050565b600061491182614950565b9050919050565b60008115159050919050565b60007fffffffff0000000000000000000000000000000000000000000000000000000082169050919050565b600073ffffffffffffffffffffffffffffffffffffffff82169050919050565b6000819050919050565b82818337600083830152505050565b60005b838110156149a757808201518184015260208101905061498c565b838111156149b6576000848401525b50505050565b600060028204905060018216806149d457607f821691505b602082108114156149e8576149e7614af7565b5b50919050565b6149f782614b98565b810181811067ffffffffffffffff82111715614a1657614a15614b55565b5b80604052505050565b6000614a2a82614970565b91507fffffffffffffffffffffffffffffffffffffffffffffffffffffffffffffffff821415614a5d57614a5c614a99565b5b600182019050919050565b6000614a7382614970565b9150614a7e83614970565b925082614a8e57614a8d614ac8565b5b828206905092915050565b7f4e487b7100000000000000000000000000000000000000000000000000000000600052601160045260246000fd5b7f4e487b7100000000000000000000000000000000000000000000000000000000600052601260045260246000fd5b7f4e487b7100000000000000000000000000000000000000000000000000000000600052602260045260246000fd5b7f4e487b7100000000000000000000000000000000000000000000000000000000600052603260045260246000fd5b7f4e487b7100000000000000000000000000000000000000000000000000000000600052604160045260246000fd5b600080fd5b600080fd5b600080fd5b600080fd5b6000601f19601f8301169050919050565b7f4e6f74204f776e65722100000000000000000000000000000000000000000000600082015250565b7f4552433732313a207472616e7366657220746f206e6f6e20455243373231526560008201527f63656976657220696d706c656d656e7465720000000000000000000000000000602082015250565b7f2261747472696275746573223a205b7b2274726169745f74797065223a20224260008201527f72616e64222c202276616c7565223a2022000000000000000000000000000000602082015250565b7f222c000000000000000000000000000000000000000000000000000000000000600082015250565b7f4552433732313a207472616e736665722066726f6d20696e636f72726563742060008201527f6f776e6572000000000000000000000000000000000000000000000000000000602082015250565b7f4552433732313a20746f6b656e20616c7265616479206d696e74656400000000600082015250565b7f416c726561647920457869737473000000000000000000000000000000000000600082015250565b7f496e73756666696369656e742056616c75650000000000000000000000000000600082015250565b7f203c2f746578743e3c7465787420783d273130252720793d273435252720666960008201527f6c6c3d2777686974652720666f6e742d73697a653d2731656d273e204272616e60208201527f64204e616d653a3c2f746578743e3c7465787420783d273130252720793d273560408201527f3525272066696c6c3d2777686974652720666f6e742d73697a653d2731656d2760608201527f3e00000000000000000000000000000000000000000000000000000000000000608082015250565b7f4552433732313a207472616e7366657220746f20746865207a65726f2061646460008201527f7265737300000000000000000000000000000000000000000000000000000000602082015250565b7f4552433732313a20617070726f766520746f2063616c6c657200000000000000600082015250565b7f4552433732313a206f70657261746f7220717565727920666f72206e6f6e657860008201527f697374656e7420746f6b656e0000000000000000000000000000000000000000602082015250565b7f3c2f746578743e3c2f7376673e00000000000000000000000000000000000000600082015250565b7f4552433732313a20617070726f76652063616c6c6572206973206e6f74206f7760008201527f6e6572206e6f7220617070726f76656420666f7220616c6c0000000000000000602082015250565b7f4552433732313a2062616c616e636520717565727920666f7220746865207a6560008201527f726f206164647265737300000000000000000000000000000000000000000000602082015250565b7f4552433732313a206f776e657220717565727920666f72206e6f6e657869737460008201527f656e7420746f6b656e0000000000000000000000000000000000000000000000602082015250565b7f45524337323155524953746f726167653a2055524920736574206f66206e6f6e60008201527f6578697374656e7420746f6b656e000000000000000000000000000000000000602082015250565b7f227d5d2c00000000000000000000000000000000000000000000000000000000600082015250565b7f22696d616765223a220000000000000000000000000000000000000000000000600082015250565b7f227d000000000000000000000000000000000000000000000000000000000000600082015250565b7f4552433732313a206d696e7420746f20746865207a65726f2061646472657373600082015250565b7f45524337323155524953746f726167653a2055524920717565727920666f722060008201527f6e6f6e6578697374656e7420746f6b656e000000000000000000000000000000602082015250565b7f4552433732313a20617070726f76656420717565727920666f72206e6f6e657860008201527f697374656e7420746f6b656e0000000000000000000000000000000000000000602082015250565b7f4552433732314d657461646174613a2055524920717565727920666f72206e6f60008201527f6e6578697374656e7420746f6b656e0000000000000000000000000000000000602082015250565b7f7b226e616d65223a202200000000000000000000000000000000000000000000600082015250565b7f2e2056656869636c652043617465676f72793a20000000000000000000000000600082015250565b7f4552433732313a20617070726f76616c20746f2063757272656e74206f776e6560008201527f7200000000000000000000000000000000000000000000000000000000000000602082015250565b7f2e222c0000000000000000000000000000000000000000000000000000000000600082015250565b7f646174613a6170706c69636174696f6e2f6a736f6e3b6261736536342c000000600082015250565b7f4552433732313a207472616e736665722063616c6c6572206973206e6f74206f60008201527f776e6572206e6f7220617070726f766564000000000000000000000000000000602082015250565b7f4f6e6c79206f6e652070657220636f6d70616e79000000000000000000000000600082015250565b7f226465736372697074696f6e223a2022416e20617574686f72697a656420616e60008201527f642072656769737465726564206465616c657273686970206f66200000000000602082015250565b7f3c73766720786d6c6e733d27687474703a2f2f7777772e77332e6f72672f323060008201527f30302f73766727206865696768743d27333530272077696474683d273335302760208201527f3e3c726563742077696474683d2733353027206865696768743d27333530272060408201527f7374796c653d2766696c6c3a72676228302c203135302c20323535293b73747260608201527f6f6b652d77696474683a333b7374726f6b653a72676228302c302c3029273e3c60808201527f2f726563743e3c7465787420783d273130252720793d27323025272066696c6c60a08201527f3d2777686974652720666f6e742d73697a653d2731656d273e436f6d70616e7960c08201527f204e616d653a203c2f746578743e3c7465787420783d273130252720793d273360e08201527f3025272066696c6c3d2777686974652720666f6e742d73697a653d2731656d276101008201527f3e0000000000000000000000000000000000000000000000000000000000000061012082015250565b7f227d2c207b2274726169745f74797065223a202256656869636c655f4361746560008201527f676f7279222c202276616c7565223a2022000000000000000000000000000000602082015250565b7f3c2f746578743e3c7465787420783d273130252720793d27373025272066696c60008201527f6c3d2777686974652720666f6e742d73697a653d2731656d273e526567204e6f60208201527f3a3c2f746578743e3c7465787420783d273130252720793d273830252720666960408201527f6c6c3d2777686974652720666f6e742d73697a653d2731656d273e0000000000606082015250565b7f227d2c207b2274726169745f74797065223a202241646472657373222c20227660008201527f616c7565223a2022000000000000000000000000000000000000000000000000602082015250565b7f227d2c7b2274726169745f74797065223a20224465616c65725f4944222c202260008201527f76616c7565223a20220000000000000000000000000000000000000000000000602082015250565b6156ad81614906565b81146156b857600080fd5b50565b6156c481614918565b81146156cf57600080fd5b50565b6156db81614924565b81146156e657600080fd5b50565b6156f281614970565b81146156fd57600080fd5b5056fe4142434445464748494a4b4c4d4e4f505152535455565758595a6162636465666768696a6b6c6d6e6f707172737475767778797a303132333435363738392b2fa26469706673582212202a7b3b5b85ddf3459e0dde066566bf177b981c50a71af2f7352eac2223cd75f464736f6c63430008070033",
  "linkReferences": {},
  "deployedLinkReferences": {}
}